{
  "contractName": "CryptoCoders",
  "abi": [
    {
      "inputs": [],
      "stateMutability": "nonpayable",
      "type": "constructor"
    },
    {
      "anonymous": false,
      "inputs": [
        {
          "indexed": true,
          "internalType": "address",
          "name": "owner",
          "type": "address"
        },
        {
          "indexed": true,
          "internalType": "address",
          "name": "approved",
          "type": "address"
        },
        {
          "indexed": true,
          "internalType": "uint256",
          "name": "tokenId",
          "type": "uint256"
        }
      ],
      "name": "Approval",
      "type": "event"
    },
    {
      "anonymous": false,
      "inputs": [
        {
          "indexed": true,
          "internalType": "address",
          "name": "owner",
          "type": "address"
        },
        {
          "indexed": true,
          "internalType": "address",
          "name": "operator",
          "type": "address"
        },
        {
          "indexed": false,
          "internalType": "bool",
          "name": "approved",
          "type": "bool"
        }
      ],
      "name": "ApprovalForAll",
      "type": "event"
    },
    {
      "anonymous": false,
      "inputs": [
        {
          "indexed": true,
          "internalType": "address",
          "name": "from",
          "type": "address"
        },
        {
          "indexed": true,
          "internalType": "address",
          "name": "to",
          "type": "address"
        },
        {
          "indexed": true,
          "internalType": "uint256",
          "name": "tokenId",
          "type": "uint256"
        }
      ],
      "name": "Transfer",
      "type": "event"
    },
    {
      "inputs": [
        {
          "internalType": "address",
          "name": "to",
          "type": "address"
        },
        {
          "internalType": "uint256",
          "name": "tokenId",
          "type": "uint256"
        }
      ],
      "name": "approve",
      "outputs": [],
      "stateMutability": "nonpayable",
      "type": "function"
    },
    {
      "inputs": [
        {
          "internalType": "address",
          "name": "owner",
          "type": "address"
        }
      ],
      "name": "balanceOf",
      "outputs": [
        {
          "internalType": "uint256",
          "name": "",
          "type": "uint256"
        }
      ],
      "stateMutability": "view",
      "type": "function",
      "constant": true
    },
    {
      "inputs": [
        {
          "internalType": "uint256",
          "name": "",
          "type": "uint256"
        }
      ],
      "name": "coders",
      "outputs": [
        {
          "internalType": "uint256",
          "name": "id",
          "type": "uint256"
        },
        {
          "internalType": "string",
          "name": "name",
          "type": "string"
        },
        {
          "internalType": "uint256",
          "name": "voteCount",
          "type": "uint256"
        }
      ],
      "stateMutability": "view",
      "type": "function",
      "constant": true
    },
    {
      "inputs": [
        {
          "internalType": "uint256",
          "name": "tokenId",
          "type": "uint256"
        }
      ],
      "name": "getApproved",
      "outputs": [
        {
          "internalType": "address",
          "name": "",
          "type": "address"
        }
      ],
      "stateMutability": "view",
      "type": "function",
      "constant": true
    },
    {
      "inputs": [
        {
          "internalType": "address",
          "name": "owner",
          "type": "address"
        },
        {
          "internalType": "address",
          "name": "operator",
          "type": "address"
        }
      ],
      "name": "isApprovedForAll",
      "outputs": [
        {
          "internalType": "bool",
          "name": "",
          "type": "bool"
        }
      ],
      "stateMutability": "view",
      "type": "function",
      "constant": true
    },
    {
      "inputs": [],
      "name": "name",
      "outputs": [
        {
          "internalType": "string",
          "name": "",
          "type": "string"
        }
      ],
      "stateMutability": "view",
      "type": "function",
      "constant": true
    },
    {
      "inputs": [
        {
          "internalType": "uint256",
          "name": "tokenId",
          "type": "uint256"
        }
      ],
      "name": "ownerOf",
      "outputs": [
        {
          "internalType": "address",
          "name": "",
          "type": "address"
        }
      ],
      "stateMutability": "view",
      "type": "function",
      "constant": true
    },
    {
      "inputs": [
        {
          "internalType": "address",
          "name": "from",
          "type": "address"
        },
        {
          "internalType": "address",
          "name": "to",
          "type": "address"
        },
        {
          "internalType": "uint256",
          "name": "tokenId",
          "type": "uint256"
        }
      ],
      "name": "safeTransferFrom",
      "outputs": [],
      "stateMutability": "nonpayable",
      "type": "function"
    },
    {
      "inputs": [
        {
          "internalType": "address",
          "name": "from",
          "type": "address"
        },
        {
          "internalType": "address",
          "name": "to",
          "type": "address"
        },
        {
          "internalType": "uint256",
          "name": "tokenId",
          "type": "uint256"
        },
        {
          "internalType": "bytes",
          "name": "_data",
          "type": "bytes"
        }
      ],
      "name": "safeTransferFrom",
      "outputs": [],
      "stateMutability": "nonpayable",
      "type": "function"
    },
    {
      "inputs": [
        {
          "internalType": "address",
          "name": "operator",
          "type": "address"
        },
        {
          "internalType": "bool",
          "name": "approved",
          "type": "bool"
        }
      ],
      "name": "setApprovalForAll",
      "outputs": [],
      "stateMutability": "nonpayable",
      "type": "function"
    },
    {
      "inputs": [],
      "name": "symbol",
      "outputs": [
        {
          "internalType": "string",
          "name": "",
          "type": "string"
        }
      ],
      "stateMutability": "view",
      "type": "function",
      "constant": true
    },
    {
      "inputs": [
        {
          "internalType": "uint256",
          "name": "index",
          "type": "uint256"
        }
      ],
      "name": "tokenByIndex",
      "outputs": [
        {
          "internalType": "uint256",
          "name": "",
          "type": "uint256"
        }
      ],
      "stateMutability": "view",
      "type": "function",
      "constant": true
    },
    {
      "inputs": [
        {
          "internalType": "address",
          "name": "owner",
          "type": "address"
        },
        {
          "internalType": "uint256",
          "name": "index",
          "type": "uint256"
        }
      ],
      "name": "tokenOfOwnerByIndex",
      "outputs": [
        {
          "internalType": "uint256",
          "name": "",
          "type": "uint256"
        }
      ],
      "stateMutability": "view",
      "type": "function",
      "constant": true
    },
    {
      "inputs": [
        {
          "internalType": "uint256",
          "name": "tokenId",
          "type": "uint256"
        }
      ],
      "name": "tokenURI",
      "outputs": [
        {
          "internalType": "string",
          "name": "",
          "type": "string"
        }
      ],
      "stateMutability": "view",
      "type": "function",
      "constant": true
    },
    {
      "inputs": [],
      "name": "totalSupply",
      "outputs": [
        {
          "internalType": "uint256",
          "name": "",
          "type": "uint256"
        }
      ],
      "stateMutability": "view",
      "type": "function",
      "constant": true
    },
    {
      "inputs": [
        {
          "internalType": "address",
          "name": "from",
          "type": "address"
        },
        {
          "internalType": "address",
          "name": "to",
          "type": "address"
        },
        {
          "internalType": "uint256",
          "name": "tokenId",
          "type": "uint256"
        }
      ],
      "name": "transferFrom",
      "outputs": [],
      "stateMutability": "nonpayable",
      "type": "function"
    },
    {
      "inputs": [
        {
          "internalType": "address",
          "name": "",
          "type": "address"
        }
      ],
      "name": "voters",
      "outputs": [
        {
          "internalType": "bool",
          "name": "",
          "type": "bool"
        }
      ],
      "stateMutability": "view",
      "type": "function",
      "constant": true
    },
    {
      "inputs": [
        {
          "internalType": "string",
          "name": "name",
          "type": "string"
        }
      ],
      "name": "mint",
      "outputs": [],
      "stateMutability": "nonpayable",
      "type": "function"
    },
    {
      "inputs": [
        {
          "internalType": "uint256",
          "name": "_coderid",
          "type": "uint256"
        }
      ],
      "name": "vote",
      "outputs": [],
      "stateMutability": "nonpayable",
      "type": "function"
    },
    {
      "inputs": [
        {
          "internalType": "bytes4",
          "name": "interfaceId",
          "type": "bytes4"
        }
      ],
      "name": "supportsInterface",
      "outputs": [
        {
          "internalType": "bool",
          "name": "",
          "type": "bool"
        }
      ],
      "stateMutability": "view",
      "type": "function",
      "constant": true
    }
  ],
  "bytecode": "0x60806040523480156200001157600080fd5b506040518060400160405280600c81526020017f43727970746f436f6465727300000000000000000000000000000000000000008152506040518060400160405280600381526020017f4343530000000000000000000000000000000000000000000000000000000000815250816000908051906020019062000096929190620000b8565b508060019080519060200190620000af929190620000b8565b505050620001cd565b828054620000c69062000197565b90600052602060002090601f016020900481019282620000ea576000855562000136565b82601f106200010557805160ff191683800117855562000136565b8280016001018555821562000136579182015b828111156200013557825182559160200191906001019062000118565b5b50905062000145919062000149565b5090565b5b80821115620001645760008160009055506001016200014a565b5090565b7f4e487b7100000000000000000000000000000000000000000000000000000000600052602260045260246000fd5b60006002820490506001821680620001b057607f821691505b60208210811415620001c757620001c662000168565b5b50919050565b61341380620001dd6000396000f3fe608060405234801561001057600080fd5b506004361061012c5760003560e01c80634f6ccce7116100ad578063a3ec138d11610071578063a3ec138d14610369578063b88d4fde14610399578063c87b56dd146103b5578063d85d3d27146103e5578063e985e9c5146104015761012c565b80634f6ccce71461029f5780636352211e146102cf57806370a08231146102ff57806395d89b411461032f578063a22cb4651461034d5761012c565b806318160ddd116100f457806318160ddd146101e757806323b872dd146102055780632f745c591461022157806342842e0e146102515780634cfa16f91461026d5761012c565b80630121b93f1461013157806301ffc9a71461014d57806306fdde031461017d578063081812fc1461019b578063095ea7b3146101cb575b600080fd5b61014b600480360381019061014691906120e2565b610431565b005b61016760048036038101906101629190612167565b61052c565b60405161017491906121af565b60405180910390f35b61018561053e565b6040516101929190612263565b60405180910390f35b6101b560048036038101906101b091906120e2565b6105d0565b6040516101c291906122c6565b60405180910390f35b6101e560048036038101906101e0919061230d565b610655565b005b6101ef61076d565b6040516101fc919061235c565b60405180910390f35b61021f600480360381019061021a9190612377565b61077a565b005b61023b6004803603810190610236919061230d565b6107da565b604051610248919061235c565b60405180910390f35b61026b60048036038101906102669190612377565b61087f565b005b610287600480360381019061028291906120e2565b61089f565b604051610296939291906123ca565b60405180910390f35b6102b960048036038101906102b491906120e2565b610961565b6040516102c6919061235c565b60405180910390f35b6102e960048036038101906102e491906120e2565b6109d2565b6040516102f691906122c6565b60405180910390f35b61031960048036038101906103149190612408565b610a84565b604051610326919061235c565b60405180910390f35b610337610b3c565b6040516103449190612263565b60405180910390f35b61036760048036038101906103629190612461565b610bce565b005b610383600480360381019061037e9190612408565b610be4565b60405161039091906121af565b60405180910390f35b6103b360048036038101906103ae91906125d6565b610c04565b005b6103cf60048036038101906103ca91906120e2565b610c66565b6040516103dc9190612263565b60405180910390f35b6103ff60048036038101906103fa91906126fa565b610d0d565b005b61041b60048036038101906104169190612743565b610e2f565b60405161042891906121af565b60405180910390f35b600c60003373ffffffffffffffffffffffffffffffffffffffff1673ffffffffffffffffffffffffffffffffffffffff16815260200190815260200160002060009054906101000a900460ff161561048857600080fd5b600081101561049657600080fd5b6001600c60003373ffffffffffffffffffffffffffffffffffffffff1673ffffffffffffffffffffffffffffffffffffffff16815260200190815260200160002060006101000a81548160ff021916908315150217905550600b818154811061050257610501612783565b5b90600052602060002090600302016002016000815480929190610524906127e1565b919050555050565b600061053782610ec3565b9050919050565b60606000805461054d90612859565b80601f016020809104026020016040519081016040528092919081815260200182805461057990612859565b80156105c65780601f1061059b576101008083540402835291602001916105c6565b820191906000526020600020905b8154815290600101906020018083116105a957829003601f168201915b5050505050905090565b60006105db82610f3d565b61061a576040517f08c379a0000000000000000000000000000000000000000000000000000000008152600401610611906128fd565b60405180910390fd5b6004600083815260200190815260200160002060009054906101000a900473ffffffffffffffffffffffffffffffffffffffff169050919050565b6000610660826109d2565b90508073ffffffffffffffffffffffffffffffffffffffff168373ffffffffffffffffffffffffffffffffffffffff1614156106d1576040517f08c379a00000000000000000000000000000000000000000000000000000000081526004016106c89061298f565b60405180910390fd5b8073ffffffffffffffffffffffffffffffffffffffff166106f0610fa9565b73ffffffffffffffffffffffffffffffffffffffff16148061071f575061071e81610719610fa9565b610e2f565b5b61075e576040517f08c379a000000000000000000000000000000000000000000000000000000000815260040161075590612a21565b60405180910390fd5b6107688383610fb1565b505050565b6000600880549050905090565b61078b610785610fa9565b8261106a565b6107ca576040517f08c379a00000000000000000000000000000000000000000000000000000000081526004016107c190612ab3565b60405180910390fd5b6107d5838383611148565b505050565b60006107e583610a84565b8210610826576040517f08c379a000000000000000000000000000000000000000000000000000000000815260040161081d90612b45565b60405180910390fd5b600660008473ffffffffffffffffffffffffffffffffffffffff1673ffffffffffffffffffffffffffffffffffffffff168152602001908152602001600020600083815260200190815260200160002054905092915050565b61089a83838360405180602001604052806000815250610c04565b505050565b600b81815481106108af57600080fd5b90600052602060002090600302016000915090508060000154908060010180546108d890612859565b80601f016020809104026020016040519081016040528092919081815260200182805461090490612859565b80156109515780601f1061092657610100808354040283529160200191610951565b820191906000526020600020905b81548152906001019060200180831161093457829003601f168201915b5050505050908060020154905083565b600061096b61076d565b82106109ac576040517f08c379a00000000000000000000000000000000000000000000000000000000081526004016109a390612bd7565b60405180910390fd5b600882815481106109c0576109bf612783565b5b90600052602060002001549050919050565b6000806002600084815260200190815260200160002060009054906101000a900473ffffffffffffffffffffffffffffffffffffffff169050600073ffffffffffffffffffffffffffffffffffffffff168173ffffffffffffffffffffffffffffffffffffffff161415610a7b576040517f08c379a0000000000000000000000000000000000000000000000000000000008152600401610a7290612c69565b60405180910390fd5b80915050919050565b60008073ffffffffffffffffffffffffffffffffffffffff168273ffffffffffffffffffffffffffffffffffffffff161415610af5576040517f08c379a0000000000000000000000000000000000000000000000000000000008152600401610aec90612cfb565b60405180910390fd5b600360008373ffffffffffffffffffffffffffffffffffffffff1673ffffffffffffffffffffffffffffffffffffffff168152602001908152602001600020549050919050565b606060018054610b4b90612859565b80601f0160208091040260200160405190810160405280929190818152602001828054610b7790612859565b8015610bc45780601f10610b9957610100808354040283529160200191610bc4565b820191906000526020600020905b815481529060010190602001808311610ba757829003601f168201915b5050505050905090565b610be0610bd9610fa9565b83836113af565b5050565b600c6020528060005260406000206000915054906101000a900460ff1681565b610c15610c0f610fa9565b8361106a565b610c54576040517f08c379a0000000000000000000000000000000000000000000000000000000008152600401610c4b90612ab3565b60405180910390fd5b610c608484848461151c565b50505050565b6060610c7182610f3d565b610cb0576040517f08c379a0000000000000000000000000000000000000000000000000000000008152600401610ca790612d8d565b60405180910390fd5b6000610cba611578565b90506000815111610cda5760405180602001604052806000815250610d05565b80610ce48461158f565b604051602001610cf5929190612de9565b6040516020818303038152906040525b915050919050565b600a81604051610d1d9190612e0d565b908152602001604051809103902060009054906101000a900460ff1615610d4357600080fd5b6005600b8054905010610d5557600080fd5b600b6040518060600160405280600b80549050815260200183815260200160008152509080600181540180825580915050600190039060005260206000209060030201600090919091909150600082015181600001556020820151816001019080519060200190610dc7929190611ff5565b5060408201518160020155505060006001600b80549050610de89190612e24565b9050610df433826116f0565b6001600a83604051610e069190612e0d565b908152602001604051809103902060006101000a81548160ff0219169083151502179055505050565b6000600560008473ffffffffffffffffffffffffffffffffffffffff1673ffffffffffffffffffffffffffffffffffffffff16815260200190815260200160002060008373ffffffffffffffffffffffffffffffffffffffff1673ffffffffffffffffffffffffffffffffffffffff16815260200190815260200160002060009054906101000a900460ff16905092915050565b60007f780e9d63000000000000000000000000000000000000000000000000000000007bffffffffffffffffffffffffffffffffffffffffffffffffffffffff1916827bffffffffffffffffffffffffffffffffffffffffffffffffffffffff19161480610f365750610f35826118ca565b5b9050919050565b60008073ffffffffffffffffffffffffffffffffffffffff166002600084815260200190815260200160002060009054906101000a900473ffffffffffffffffffffffffffffffffffffffff1673ffffffffffffffffffffffffffffffffffffffff1614159050919050565b600033905090565b816004600083815260200190815260200160002060006101000a81548173ffffffffffffffffffffffffffffffffffffffff021916908373ffffffffffffffffffffffffffffffffffffffff160217905550808273ffffffffffffffffffffffffffffffffffffffff16611024836109d2565b73ffffffffffffffffffffffffffffffffffffffff167f8c5be1e5ebec7d5bd14f71427d1e84f3dd0314c0f7b2291e5b200ac8c7c3b92560405160405180910390a45050565b600061107582610f3d565b6110b4576040517f08c379a00000000000000000000000000000000000000000000000000000000081526004016110ab90612eca565b60405180910390fd5b60006110bf836109d2565b90508073ffffffffffffffffffffffffffffffffffffffff168473ffffffffffffffffffffffffffffffffffffffff16148061112e57508373ffffffffffffffffffffffffffffffffffffffff16611116846105d0565b73ffffffffffffffffffffffffffffffffffffffff16145b8061113f575061113e8185610e2f565b5b91505092915050565b8273ffffffffffffffffffffffffffffffffffffffff16611168826109d2565b73ffffffffffffffffffffffffffffffffffffffff16146111be576040517f08c379a00000000000000000000000000000000000000000000000000000000081526004016111b590612f5c565b60405180910390fd5b600073ffffffffffffffffffffffffffffffffffffffff168273ffffffffffffffffffffffffffffffffffffffff16141561122e576040517f08c379a000000000000000000000000000000000000000000000000000000000815260040161122590612fee565b60405180910390fd5b6112398383836119ac565b611244600082610fb1565b6001600360008573ffffffffffffffffffffffffffffffffffffffff1673ffffffffffffffffffffffffffffffffffffffff16815260200190815260200160002060008282546112949190612e24565b925050819055506001600360008473ffffffffffffffffffffffffffffffffffffffff1673ffffffffffffffffffffffffffffffffffffffff16815260200190815260200160002060008282546112eb919061300e565b92505081905550816002600083815260200190815260200160002060006101000a81548173ffffffffffffffffffffffffffffffffffffffff021916908373ffffffffffffffffffffffffffffffffffffffff160217905550808273ffffffffffffffffffffffffffffffffffffffff168473ffffffffffffffffffffffffffffffffffffffff167fddf252ad1be2c89b69c2b068fc378daa952ba7f163c4a11628f55a4df523b3ef60405160405180910390a46113aa8383836119bc565b505050565b8173ffffffffffffffffffffffffffffffffffffffff168373ffffffffffffffffffffffffffffffffffffffff16141561141e576040517f08c379a0000000000000000000000000000000000000000000000000000000008152600401611415906130b0565b60405180910390fd5b80600560008573ffffffffffffffffffffffffffffffffffffffff1673ffffffffffffffffffffffffffffffffffffffff16815260200190815260200160002060008473ffffffffffffffffffffffffffffffffffffffff1673ffffffffffffffffffffffffffffffffffffffff16815260200190815260200160002060006101000a81548160ff0219169083151502179055508173ffffffffffffffffffffffffffffffffffffffff168373ffffffffffffffffffffffffffffffffffffffff167f17307eab39ab6107e8899845ad3d59bd9653f200f220920489ca2b5937696c318360405161150f91906121af565b60405180910390a3505050565b611527848484611148565b611533848484846119c1565b611572576040517f08c379a000000000000000000000000000000000000000000000000000000000815260040161156990613142565b60405180910390fd5b50505050565b606060405180602001604052806000815250905090565b606060008214156115d7576040518060400160405280600181526020017f300000000000000000000000000000000000000000000000000000000000000081525090506116eb565b600082905060005b600082146116095780806115f2906127e1565b915050600a826116029190613191565b91506115df565b60008167ffffffffffffffff811115611625576116246124ab565b5b6040519080825280601f01601f1916602001820160405280156116575781602001600182028036833780820191505090505b5090505b600085146116e4576001826116709190612e24565b9150600a8561167f91906131c2565b603061168b919061300e565b60f81b8183815181106116a1576116a0612783565b5b60200101907effffffffffffffffffffffffffffffffffffffffffffffffffffffffffffff1916908160001a905350600a856116dd9190613191565b945061165b565b8093505050505b919050565b600073ffffffffffffffffffffffffffffffffffffffff168273ffffffffffffffffffffffffffffffffffffffff161415611760576040517f08c379a00000000000000000000000000000000000000000000000000000000081526004016117579061323f565b60405180910390fd5b61176981610f3d565b156117a9576040517f08c379a00000000000000000000000000000000000000000000000000000000081526004016117a0906132ab565b60405180910390fd5b6117b5600083836119ac565b6001600360008473ffffffffffffffffffffffffffffffffffffffff1673ffffffffffffffffffffffffffffffffffffffff1681526020019081526020016000206000828254611805919061300e565b92505081905550816002600083815260200190815260200160002060006101000a81548173ffffffffffffffffffffffffffffffffffffffff021916908373ffffffffffffffffffffffffffffffffffffffff160217905550808273ffffffffffffffffffffffffffffffffffffffff16600073ffffffffffffffffffffffffffffffffffffffff167fddf252ad1be2c89b69c2b068fc378daa952ba7f163c4a11628f55a4df523b3ef60405160405180910390a46118c6600083836119bc565b5050565b60007f80ac58cd000000000000000000000000000000000000000000000000000000007bffffffffffffffffffffffffffffffffffffffffffffffffffffffff1916827bffffffffffffffffffffffffffffffffffffffffffffffffffffffff1916148061199557507f5b5e139f000000000000000000000000000000000000000000000000000000007bffffffffffffffffffffffffffffffffffffffffffffffffffffffff1916827bffffffffffffffffffffffffffffffffffffffffffffffffffffffff1916145b806119a557506119a482611b49565b5b9050919050565b6119b7838383611bb3565b505050565b505050565b60006119e28473ffffffffffffffffffffffffffffffffffffffff16611cc7565b15611b3c578373ffffffffffffffffffffffffffffffffffffffff1663150b7a02611a0b610fa9565b8786866040518563ffffffff1660e01b8152600401611a2d9493929190613320565b6020604051808303816000875af1925050508015611a6957506040513d601f19601f82011682018060405250810190611a669190613381565b60015b611aec573d8060008114611a99576040519150601f19603f3d011682016040523d82523d6000602084013e611a9e565b606091505b50600081511415611ae4576040517f08c379a0000000000000000000000000000000000000000000000000000000008152600401611adb90613142565b60405180910390fd5b805181602001fd5b63150b7a0260e01b7bffffffffffffffffffffffffffffffffffffffffffffffffffffffff1916817bffffffffffffffffffffffffffffffffffffffffffffffffffffffff191614915050611b41565b600190505b949350505050565b60007f01ffc9a7000000000000000000000000000000000000000000000000000000007bffffffffffffffffffffffffffffffffffffffffffffffffffffffff1916827bffffffffffffffffffffffffffffffffffffffffffffffffffffffff1916149050919050565b611bbe838383611cea565b600073ffffffffffffffffffffffffffffffffffffffff168373ffffffffffffffffffffffffffffffffffffffff161415611c0157611bfc81611cef565b611c40565b8173ffffffffffffffffffffffffffffffffffffffff168373ffffffffffffffffffffffffffffffffffffffff1614611c3f57611c3e8382611d38565b5b5b600073ffffffffffffffffffffffffffffffffffffffff168273ffffffffffffffffffffffffffffffffffffffff161415611c8357611c7e81611ea5565b611cc2565b8273ffffffffffffffffffffffffffffffffffffffff168273ffffffffffffffffffffffffffffffffffffffff1614611cc157611cc08282611f76565b5b5b505050565b6000808273ffffffffffffffffffffffffffffffffffffffff163b119050919050565b505050565b6008805490506009600083815260200190815260200160002081905550600881908060018154018082558091505060019003906000526020600020016000909190919091505550565b60006001611d4584610a84565b611d4f9190612e24565b9050600060076000848152602001908152602001600020549050818114611e34576000600660008673ffffffffffffffffffffffffffffffffffffffff1673ffffffffffffffffffffffffffffffffffffffff168152602001908152602001600020600084815260200190815260200160002054905080600660008773ffffffffffffffffffffffffffffffffffffffff1673ffffffffffffffffffffffffffffffffffffffff168152602001908152602001600020600084815260200190815260200160002081905550816007600083815260200190815260200160002081905550505b6007600084815260200190815260200160002060009055600660008573ffffffffffffffffffffffffffffffffffffffff1673ffffffffffffffffffffffffffffffffffffffff16815260200190815260200160002060008381526020019081526020016000206000905550505050565b60006001600880549050611eb99190612e24565b9050600060096000848152602001908152602001600020549050600060088381548110611ee957611ee8612783565b5b906000526020600020015490508060088381548110611f0b57611f0a612783565b5b906000526020600020018190555081600960008381526020019081526020016000208190555060096000858152602001908152602001600020600090556008805480611f5a57611f596133ae565b5b6001900381819060005260206000200160009055905550505050565b6000611f8183610a84565b905081600660008573ffffffffffffffffffffffffffffffffffffffff1673ffffffffffffffffffffffffffffffffffffffff168152602001908152602001600020600083815260200190815260200160002081905550806007600084815260200190815260200160002081905550505050565b82805461200190612859565b90600052602060002090601f016020900481019282612023576000855561206a565b82601f1061203c57805160ff191683800117855561206a565b8280016001018555821561206a579182015b8281111561206957825182559160200191906001019061204e565b5b509050612077919061207b565b5090565b5b8082111561209457600081600090555060010161207c565b5090565b6000604051905090565b600080fd5b600080fd5b6000819050919050565b6120bf816120ac565b81146120ca57600080fd5b50565b6000813590506120dc816120b6565b92915050565b6000602082840312156120f8576120f76120a2565b5b6000612106848285016120cd565b91505092915050565b60007fffffffff0000000000000000000000000000000000000000000000000000000082169050919050565b6121448161210f565b811461214f57600080fd5b50565b6000813590506121618161213b565b92915050565b60006020828403121561217d5761217c6120a2565b5b600061218b84828501612152565b91505092915050565b60008115159050919050565b6121a981612194565b82525050565b60006020820190506121c460008301846121a0565b92915050565b600081519050919050565b600082825260208201905092915050565b60005b838110156122045780820151818401526020810190506121e9565b83811115612213576000848401525b50505050565b6000601f19601f8301169050919050565b6000612235826121ca565b61223f81856121d5565b935061224f8185602086016121e6565b61225881612219565b840191505092915050565b6000602082019050818103600083015261227d818461222a565b905092915050565b600073ffffffffffffffffffffffffffffffffffffffff82169050919050565b60006122b082612285565b9050919050565b6122c0816122a5565b82525050565b60006020820190506122db60008301846122b7565b92915050565b6122ea816122a5565b81146122f557600080fd5b50565b600081359050612307816122e1565b92915050565b60008060408385031215612324576123236120a2565b5b6000612332858286016122f8565b9250506020612343858286016120cd565b9150509250929050565b612356816120ac565b82525050565b6000602082019050612371600083018461234d565b92915050565b6000806000606084860312156123905761238f6120a2565b5b600061239e868287016122f8565b93505060206123af868287016122f8565b92505060406123c0868287016120cd565b9150509250925092565b60006060820190506123df600083018661234d565b81810360208301526123f1818561222a565b9050612400604083018461234d565b949350505050565b60006020828403121561241e5761241d6120a2565b5b600061242c848285016122f8565b91505092915050565b61243e81612194565b811461244957600080fd5b50565b60008135905061245b81612435565b92915050565b60008060408385031215612478576124776120a2565b5b6000612486858286016122f8565b92505060206124978582860161244c565b9150509250929050565b600080fd5b600080fd5b7f4e487b7100000000000000000000000000000000000000000000000000000000600052604160045260246000fd5b6124e382612219565b810181811067ffffffffffffffff82111715612502576125016124ab565b5b80604052505050565b6000612515612098565b905061252182826124da565b919050565b600067ffffffffffffffff821115612541576125406124ab565b5b61254a82612219565b9050602081019050919050565b82818337600083830152505050565b600061257961257484612526565b61250b565b905082815260208101848484011115612595576125946124a6565b5b6125a0848285612557565b509392505050565b600082601f8301126125bd576125bc6124a1565b5b81356125cd848260208601612566565b91505092915050565b600080600080608085870312156125f0576125ef6120a2565b5b60006125fe878288016122f8565b945050602061260f878288016122f8565b9350506040612620878288016120cd565b925050606085013567ffffffffffffffff811115612641576126406120a7565b5b61264d878288016125a8565b91505092959194509250565b600067ffffffffffffffff821115612674576126736124ab565b5b61267d82612219565b9050602081019050919050565b600061269d61269884612659565b61250b565b9050828152602081018484840111156126b9576126b86124a6565b5b6126c4848285612557565b509392505050565b600082601f8301126126e1576126e06124a1565b5b81356126f184826020860161268a565b91505092915050565b6000602082840312156127105761270f6120a2565b5b600082013567ffffffffffffffff81111561272e5761272d6120a7565b5b61273a848285016126cc565b91505092915050565b6000806040838503121561275a576127596120a2565b5b6000612768858286016122f8565b9250506020612779858286016122f8565b9150509250929050565b7f4e487b7100000000000000000000000000000000000000000000000000000000600052603260045260246000fd5b7f4e487b7100000000000000000000000000000000000000000000000000000000600052601160045260246000fd5b60006127ec826120ac565b91507fffffffffffffffffffffffffffffffffffffffffffffffffffffffffffffffff82141561281f5761281e6127b2565b5b600182019050919050565b7f4e487b7100000000000000000000000000000000000000000000000000000000600052602260045260246000fd5b6000600282049050600182168061287157607f821691505b602082108114156128855761288461282a565b5b50919050565b7f4552433732313a20617070726f76656420717565727920666f72206e6f6e657860008201527f697374656e7420746f6b656e0000000000000000000000000000000000000000602082015250565b60006128e7602c836121d5565b91506128f28261288b565b604082019050919050565b60006020820190508181036000830152612916816128da565b9050919050565b7f4552433732313a20617070726f76616c20746f2063757272656e74206f776e6560008201527f7200000000000000000000000000000000000000000000000000000000000000602082015250565b60006129796021836121d5565b91506129848261291d565b604082019050919050565b600060208201905081810360008301526129a88161296c565b9050919050565b7f4552433732313a20617070726f76652063616c6c6572206973206e6f74206f7760008201527f6e6572206e6f7220617070726f76656420666f7220616c6c0000000000000000602082015250565b6000612a0b6038836121d5565b9150612a16826129af565b604082019050919050565b60006020820190508181036000830152612a3a816129fe565b9050919050565b7f4552433732313a207472616e736665722063616c6c6572206973206e6f74206f60008201527f776e6572206e6f7220617070726f766564000000000000000000000000000000602082015250565b6000612a9d6031836121d5565b9150612aa882612a41565b604082019050919050565b60006020820190508181036000830152612acc81612a90565b9050919050565b7f455243373231456e756d657261626c653a206f776e657220696e646578206f7560008201527f74206f6620626f756e6473000000000000000000000000000000000000000000602082015250565b6000612b2f602b836121d5565b9150612b3a82612ad3565b604082019050919050565b60006020820190508181036000830152612b5e81612b22565b9050919050565b7f455243373231456e756d657261626c653a20676c6f62616c20696e646578206f60008201527f7574206f6620626f756e64730000000000000000000000000000000000000000602082015250565b6000612bc1602c836121d5565b9150612bcc82612b65565b604082019050919050565b60006020820190508181036000830152612bf081612bb4565b9050919050565b7f4552433732313a206f776e657220717565727920666f72206e6f6e657869737460008201527f656e7420746f6b656e0000000000000000000000000000000000000000000000602082015250565b6000612c536029836121d5565b9150612c5e82612bf7565b604082019050919050565b60006020820190508181036000830152612c8281612c46565b9050919050565b7f4552433732313a2062616c616e636520717565727920666f7220746865207a6560008201527f726f206164647265737300000000000000000000000000000000000000000000602082015250565b6000612ce5602a836121d5565b9150612cf082612c89565b604082019050919050565b60006020820190508181036000830152612d1481612cd8565b9050919050565b7f4552433732314d657461646174613a2055524920717565727920666f72206e6f60008201527f6e6578697374656e7420746f6b656e0000000000000000000000000000000000602082015250565b6000612d77602f836121d5565b9150612d8282612d1b565b604082019050919050565b60006020820190508181036000830152612da681612d6a565b9050919050565b600081905092915050565b6000612dc3826121ca565b612dcd8185612dad565b9350612ddd8185602086016121e6565b80840191505092915050565b6000612df58285612db8565b9150612e018284612db8565b91508190509392505050565b6000612e198284612db8565b915081905092915050565b6000612e2f826120ac565b9150612e3a836120ac565b925082821015612e4d57612e4c6127b2565b5b828203905092915050565b7f4552433732313a206f70657261746f7220717565727920666f72206e6f6e657860008201527f697374656e7420746f6b656e0000000000000000000000000000000000000000602082015250565b6000612eb4602c836121d5565b9150612ebf82612e58565b604082019050919050565b60006020820190508181036000830152612ee381612ea7565b9050919050565b7f4552433732313a207472616e736665722066726f6d20696e636f72726563742060008201527f6f776e6572000000000000000000000000000000000000000000000000000000602082015250565b6000612f466025836121d5565b9150612f5182612eea565b604082019050919050565b60006020820190508181036000830152612f7581612f39565b9050919050565b7f4552433732313a207472616e7366657220746f20746865207a65726f2061646460008201527f7265737300000000000000000000000000000000000000000000000000000000602082015250565b6000612fd86024836121d5565b9150612fe382612f7c565b604082019050919050565b6000602082019050818103600083015261300781612fcb565b9050919050565b6000613019826120ac565b9150613024836120ac565b9250827fffffffffffffffffffffffffffffffffffffffffffffffffffffffffffffffff03821115613059576130586127b2565b5b828201905092915050565b7f4552433732313a20617070726f766520746f2063616c6c657200000000000000600082015250565b600061309a6019836121d5565b91506130a582613064565b602082019050919050565b600060208201905081810360008301526130c98161308d565b9050919050565b7f4552433732313a207472616e7366657220746f206e6f6e20455243373231526560008201527f63656976657220696d706c656d656e7465720000000000000000000000000000602082015250565b600061312c6032836121d5565b9150613137826130d0565b604082019050919050565b6000602082019050818103600083015261315b8161311f565b9050919050565b7f4e487b7100000000000000000000000000000000000000000000000000000000600052601260045260246000fd5b600061319c826120ac565b91506131a7836120ac565b9250826131b7576131b6613162565b5b828204905092915050565b60006131cd826120ac565b91506131d8836120ac565b9250826131e8576131e7613162565b5b828206905092915050565b7f4552433732313a206d696e7420746f20746865207a65726f2061646472657373600082015250565b60006132296020836121d5565b9150613234826131f3565b602082019050919050565b600060208201905081810360008301526132588161321c565b9050919050565b7f4552433732313a20746f6b656e20616c7265616479206d696e74656400000000600082015250565b6000613295601c836121d5565b91506132a08261325f565b602082019050919050565b600060208201905081810360008301526132c481613288565b9050919050565b600081519050919050565b600082825260208201905092915050565b60006132f2826132cb565b6132fc81856132d6565b935061330c8185602086016121e6565b61331581612219565b840191505092915050565b600060808201905061333560008301876122b7565b61334260208301866122b7565b61334f604083018561234d565b818103606083015261336181846132e7565b905095945050505050565b60008151905061337b8161213b565b92915050565b600060208284031215613397576133966120a2565b5b60006133a58482850161336c565b91505092915050565b7f4e487b7100000000000000000000000000000000000000000000000000000000600052603160045260246000fdfea264697066735822122063f2b8e0d36e9b9536845a1ed1f6e7facccd2f8d0abcb4ae43bfc95136c4c6ff64736f6c634300080b0033",
  "immutableReferences": {},
  "source": "// SPDX-License-Identifier: MIT\r\npragma solidity ^0.8.0;\r\n\r\nimport \"@openzeppelin/contracts/token/ERC721/ERC721.sol\";\r\n\r\nimport \"@openzeppelin/contracts/token/ERC721/extensions/ERC721Enumerable.sol\";\r\n\r\ncontract CryptoCoders is ERC721, ERC721Enumerable {\r\n\r\n    // string[] public coders; //  \r\n\r\n    //   \r\n    mapping(string => bool) _coderExists;\r\n\r\n    constructor() ERC721(\"CryptoCoders\", \"CCS\"){\r\n        \r\n    }\r\n\r\n    struct coder {\r\n        uint id;\r\n        string name;\r\n        uint voteCount;\r\n    }\r\n\r\n    coder[] public coders;\r\n\r\n        mapping(address => bool) public voters;\r\n\r\n    function mint(string memory name) public {\r\n        // coder  \r\n        require(!_coderExists[name]);\r\n        require(coders.length < 5);\r\n        // nft    \r\n        coders.push(coder(coders.length,name,0));\r\n        // coders   \r\n        uint _id = coders.length - 1;\r\n        _mint(msg.sender, _id);\r\n        _coderExists[name] = true;\r\n    }\r\n\r\n        function vote(uint _coderid) public {\r\n        // =>  ()  \r\n        require(!voters[msg.sender]);\r\n        require(_coderid >= 0);\r\n        //   \r\n        voters[msg.sender] = true;\r\n        //  \r\n        coders[_coderid].voteCount++;\r\n        // total  \r\n        // numVote++;\r\n        // emit sendMsg(\" complete\");\r\n   \r\n    }\r\n\r\n\r\n    function _beforeTokenTransfer(address from, address to, uint256 tokenId)\r\n        internal\r\n        override(ERC721, ERC721Enumerable)\r\n    {\r\n        super._beforeTokenTransfer(from, to, tokenId);\r\n    }\r\n\r\n    function supportsInterface(bytes4 interfaceId)\r\n        public\r\n        view\r\n        override(ERC721, ERC721Enumerable)\r\n        returns (bool)\r\n    {\r\n        return super.supportsInterface(interfaceId);\r\n    }\r\n}",
  "sourcePath": "C:\\Users\\HSBUBU\\Documents\\GitHub\\dicebearNFT\\contracts\\CryptoCoders.sol",
  "compiler": {
    "name": "solc",
    "version": "0.8.11+commit.d7f03943.Emscripten.clang"
  },
  "schemaVersion": "3.4.4",
  "updatedAt": "2022-02-23T15:23:24.791Z",
  "networkType": "ethereum",
  "devdoc": {
    "kind": "dev",
    "methods": {
      "approve(address,uint256)": {
        "details": "See {IERC721-approve}."
      },
      "balanceOf(address)": {
        "details": "See {IERC721-balanceOf}."
      },
      "getApproved(uint256)": {
        "details": "See {IERC721-getApproved}."
      },
      "isApprovedForAll(address,address)": {
        "details": "See {IERC721-isApprovedForAll}."
      },
      "name()": {
        "details": "See {IERC721Metadata-name}."
      },
      "ownerOf(uint256)": {
        "details": "See {IERC721-ownerOf}."
      },
      "safeTransferFrom(address,address,uint256)": {
        "details": "See {IERC721-safeTransferFrom}."
      },
      "safeTransferFrom(address,address,uint256,bytes)": {
        "details": "See {IERC721-safeTransferFrom}."
      },
      "setApprovalForAll(address,bool)": {
        "details": "See {IERC721-setApprovalForAll}."
      },
      "symbol()": {
        "details": "See {IERC721Metadata-symbol}."
      },
      "tokenByIndex(uint256)": {
        "details": "See {IERC721Enumerable-tokenByIndex}."
      },
      "tokenOfOwnerByIndex(address,uint256)": {
        "details": "See {IERC721Enumerable-tokenOfOwnerByIndex}."
      },
      "tokenURI(uint256)": {
        "details": "See {IERC721Metadata-tokenURI}."
      },
      "totalSupply()": {
        "details": "See {IERC721Enumerable-totalSupply}."
      },
      "transferFrom(address,address,uint256)": {
        "details": "See {IERC721-transferFrom}."
      }
    },
    "version": 1
  },
  "userdoc": {
    "kind": "user",
    "methods": {},
    "version": 1
  }
}