{
  "contractName": "CryptoCoders",
  "abi": [
    {
      "inputs": [],
      "stateMutability": "nonpayable",
      "type": "constructor"
    },
    {
      "anonymous": false,
      "inputs": [
        {
          "indexed": true,
          "internalType": "address",
          "name": "owner",
          "type": "address"
        },
        {
          "indexed": true,
          "internalType": "address",
          "name": "approved",
          "type": "address"
        },
        {
          "indexed": true,
          "internalType": "uint256",
          "name": "tokenId",
          "type": "uint256"
        }
      ],
      "name": "Approval",
      "type": "event"
    },
    {
      "anonymous": false,
      "inputs": [
        {
          "indexed": true,
          "internalType": "address",
          "name": "owner",
          "type": "address"
        },
        {
          "indexed": true,
          "internalType": "address",
          "name": "operator",
          "type": "address"
        },
        {
          "indexed": false,
          "internalType": "bool",
          "name": "approved",
          "type": "bool"
        }
      ],
      "name": "ApprovalForAll",
      "type": "event"
    },
    {
      "anonymous": false,
      "inputs": [
        {
          "indexed": true,
          "internalType": "address",
          "name": "from",
          "type": "address"
        },
        {
          "indexed": true,
          "internalType": "address",
          "name": "to",
          "type": "address"
        },
        {
          "indexed": true,
          "internalType": "uint256",
          "name": "tokenId",
          "type": "uint256"
        }
      ],
      "name": "Transfer",
      "type": "event"
    },
    {
      "inputs": [
        {
          "internalType": "address",
          "name": "to",
          "type": "address"
        },
        {
          "internalType": "uint256",
          "name": "tokenId",
          "type": "uint256"
        }
      ],
      "name": "approve",
      "outputs": [],
      "stateMutability": "nonpayable",
      "type": "function"
    },
    {
      "inputs": [
        {
          "internalType": "address",
          "name": "owner",
          "type": "address"
        }
      ],
      "name": "balanceOf",
      "outputs": [
        {
          "internalType": "uint256",
          "name": "",
          "type": "uint256"
        }
      ],
      "stateMutability": "view",
      "type": "function",
      "constant": true
    },
    {
      "inputs": [
        {
          "internalType": "uint256",
          "name": "",
          "type": "uint256"
        }
      ],
      "name": "coders",
      "outputs": [
        {
          "internalType": "string",
          "name": "name",
          "type": "string"
        },
        {
          "internalType": "uint256",
          "name": "voteCount",
          "type": "uint256"
        }
      ],
      "stateMutability": "view",
      "type": "function",
      "constant": true
    },
    {
      "inputs": [
        {
          "internalType": "uint256",
          "name": "tokenId",
          "type": "uint256"
        }
      ],
      "name": "getApproved",
      "outputs": [
        {
          "internalType": "address",
          "name": "",
          "type": "address"
        }
      ],
      "stateMutability": "view",
      "type": "function",
      "constant": true
    },
    {
      "inputs": [
        {
          "internalType": "address",
          "name": "owner",
          "type": "address"
        },
        {
          "internalType": "address",
          "name": "operator",
          "type": "address"
        }
      ],
      "name": "isApprovedForAll",
      "outputs": [
        {
          "internalType": "bool",
          "name": "",
          "type": "bool"
        }
      ],
      "stateMutability": "view",
      "type": "function",
      "constant": true
    },
    {
      "inputs": [],
      "name": "name",
      "outputs": [
        {
          "internalType": "string",
          "name": "",
          "type": "string"
        }
      ],
      "stateMutability": "view",
      "type": "function",
      "constant": true
    },
    {
      "inputs": [
        {
          "internalType": "uint256",
          "name": "tokenId",
          "type": "uint256"
        }
      ],
      "name": "ownerOf",
      "outputs": [
        {
          "internalType": "address",
          "name": "",
          "type": "address"
        }
      ],
      "stateMutability": "view",
      "type": "function",
      "constant": true
    },
    {
      "inputs": [
        {
          "internalType": "address",
          "name": "from",
          "type": "address"
        },
        {
          "internalType": "address",
          "name": "to",
          "type": "address"
        },
        {
          "internalType": "uint256",
          "name": "tokenId",
          "type": "uint256"
        }
      ],
      "name": "safeTransferFrom",
      "outputs": [],
      "stateMutability": "nonpayable",
      "type": "function"
    },
    {
      "inputs": [
        {
          "internalType": "address",
          "name": "from",
          "type": "address"
        },
        {
          "internalType": "address",
          "name": "to",
          "type": "address"
        },
        {
          "internalType": "uint256",
          "name": "tokenId",
          "type": "uint256"
        },
        {
          "internalType": "bytes",
          "name": "_data",
          "type": "bytes"
        }
      ],
      "name": "safeTransferFrom",
      "outputs": [],
      "stateMutability": "nonpayable",
      "type": "function"
    },
    {
      "inputs": [
        {
          "internalType": "address",
          "name": "operator",
          "type": "address"
        },
        {
          "internalType": "bool",
          "name": "approved",
          "type": "bool"
        }
      ],
      "name": "setApprovalForAll",
      "outputs": [],
      "stateMutability": "nonpayable",
      "type": "function"
    },
    {
      "inputs": [],
      "name": "symbol",
      "outputs": [
        {
          "internalType": "string",
          "name": "",
          "type": "string"
        }
      ],
      "stateMutability": "view",
      "type": "function",
      "constant": true
    },
    {
      "inputs": [
        {
          "internalType": "uint256",
          "name": "index",
          "type": "uint256"
        }
      ],
      "name": "tokenByIndex",
      "outputs": [
        {
          "internalType": "uint256",
          "name": "",
          "type": "uint256"
        }
      ],
      "stateMutability": "view",
      "type": "function",
      "constant": true
    },
    {
      "inputs": [
        {
          "internalType": "address",
          "name": "owner",
          "type": "address"
        },
        {
          "internalType": "uint256",
          "name": "index",
          "type": "uint256"
        }
      ],
      "name": "tokenOfOwnerByIndex",
      "outputs": [
        {
          "internalType": "uint256",
          "name": "",
          "type": "uint256"
        }
      ],
      "stateMutability": "view",
      "type": "function",
      "constant": true
    },
    {
      "inputs": [
        {
          "internalType": "uint256",
          "name": "tokenId",
          "type": "uint256"
        }
      ],
      "name": "tokenURI",
      "outputs": [
        {
          "internalType": "string",
          "name": "",
          "type": "string"
        }
      ],
      "stateMutability": "view",
      "type": "function",
      "constant": true
    },
    {
      "inputs": [],
      "name": "totalSupply",
      "outputs": [
        {
          "internalType": "uint256",
          "name": "",
          "type": "uint256"
        }
      ],
      "stateMutability": "view",
      "type": "function",
      "constant": true
    },
    {
      "inputs": [
        {
          "internalType": "address",
          "name": "from",
          "type": "address"
        },
        {
          "internalType": "address",
          "name": "to",
          "type": "address"
        },
        {
          "internalType": "uint256",
          "name": "tokenId",
          "type": "uint256"
        }
      ],
      "name": "transferFrom",
      "outputs": [],
      "stateMutability": "nonpayable",
      "type": "function"
    },
    {
      "inputs": [
        {
          "internalType": "string",
          "name": "name",
          "type": "string"
        }
      ],
      "name": "mint",
      "outputs": [],
      "stateMutability": "nonpayable",
      "type": "function"
    },
    {
      "inputs": [
        {
          "internalType": "bytes4",
          "name": "interfaceId",
          "type": "bytes4"
        }
      ],
      "name": "supportsInterface",
      "outputs": [
        {
          "internalType": "bool",
          "name": "",
          "type": "bool"
        }
      ],
      "stateMutability": "view",
      "type": "function",
      "constant": true
    }
  ],
  "bytecode": "0x60806040523480156200001157600080fd5b506040518060400160405280600c81526020017f43727970746f436f6465727300000000000000000000000000000000000000008152506040518060400160405280600381526020017f4343530000000000000000000000000000000000000000000000000000000000815250816000908051906020019062000096929190620000b8565b508060019080519060200190620000af929190620000b8565b505050620001cd565b828054620000c69062000197565b90600052602060002090601f016020900481019282620000ea576000855562000136565b82601f106200010557805160ff191683800117855562000136565b8280016001018555821562000136579182015b828111156200013557825182559160200191906001019062000118565b5b50905062000145919062000149565b5090565b5b80821115620001645760008160009055506001016200014a565b5090565b7f4e487b7100000000000000000000000000000000000000000000000000000000600052602260045260246000fd5b60006002820490506001821680620001b057607f821691505b60208210811415620001c757620001c662000168565b5b50919050565b61326c80620001dd6000396000f3fe608060405234801561001057600080fd5b50600436106101165760003560e01c80634f6ccce7116100a2578063a22cb46511610071578063a22cb4651461031a578063b88d4fde14610336578063c87b56dd14610352578063d85d3d2714610382578063e985e9c51461039e57610116565b80634f6ccce71461026c5780636352211e1461029c57806370a08231146102cc57806395d89b41146102fc57610116565b806318160ddd116100e957806318160ddd146101b557806323b872dd146101d35780632f745c59146101ef57806342842e0e1461021f5780634cfa16f91461023b57610116565b806301ffc9a71461011b57806306fdde031461014b578063081812fc14610169578063095ea7b314610199575b600080fd5b61013560048036038101906101309190611f6b565b6103ce565b6040516101429190611fb3565b60405180910390f35b6101536103e0565b6040516101609190612067565b60405180910390f35b610183600480360381019061017e91906120bf565b610472565b604051610190919061212d565b60405180910390f35b6101b360048036038101906101ae9190612174565b6104f7565b005b6101bd61060f565b6040516101ca91906121c3565b60405180910390f35b6101ed60048036038101906101e891906121de565b61061c565b005b61020960048036038101906102049190612174565b61067c565b60405161021691906121c3565b60405180910390f35b610239600480360381019061023491906121de565b610721565b005b610255600480360381019061025091906120bf565b610741565b604051610263929190612231565b60405180910390f35b610286600480360381019061028191906120bf565b6107fd565b60405161029391906121c3565b60405180910390f35b6102b660048036038101906102b191906120bf565b61086e565b6040516102c3919061212d565b60405180910390f35b6102e660048036038101906102e19190612261565b610920565b6040516102f391906121c3565b60405180910390f35b6103046109d8565b6040516103119190612067565b60405180910390f35b610334600480360381019061032f91906122ba565b610a6a565b005b610350600480360381019061034b919061242f565b610a80565b005b61036c600480360381019061036791906120bf565b610ae2565b6040516103799190612067565b60405180910390f35b61039c60048036038101906103979190612553565b610b89565b005b6103b860048036038101906103b3919061259c565b610c96565b6040516103c59190611fb3565b60405180910390f35b60006103d982610d2a565b9050919050565b6060600080546103ef9061260b565b80601f016020809104026020016040519081016040528092919081815260200182805461041b9061260b565b80156104685780601f1061043d57610100808354040283529160200191610468565b820191906000526020600020905b81548152906001019060200180831161044b57829003601f168201915b5050505050905090565b600061047d82610da4565b6104bc576040517f08c379a00000000000000000000000000000000000000000000000000000000081526004016104b3906126af565b60405180910390fd5b6004600083815260200190815260200160002060009054906101000a900473ffffffffffffffffffffffffffffffffffffffff169050919050565b60006105028261086e565b90508073ffffffffffffffffffffffffffffffffffffffff168373ffffffffffffffffffffffffffffffffffffffff161415610573576040517f08c379a000000000000000000000000000000000000000000000000000000000815260040161056a90612741565b60405180910390fd5b8073ffffffffffffffffffffffffffffffffffffffff16610592610e10565b73ffffffffffffffffffffffffffffffffffffffff1614806105c157506105c0816105bb610e10565b610c96565b5b610600576040517f08c379a00000000000000000000000000000000000000000000000000000000081526004016105f7906127d3565b60405180910390fd5b61060a8383610e18565b505050565b6000600880549050905090565b61062d610627610e10565b82610ed1565b61066c576040517f08c379a000000000000000000000000000000000000000000000000000000000815260040161066390612865565b60405180910390fd5b610677838383610faf565b505050565b600061068783610920565b82106106c8576040517f08c379a00000000000000000000000000000000000000000000000000000000081526004016106bf906128f7565b60405180910390fd5b600660008473ffffffffffffffffffffffffffffffffffffffff1673ffffffffffffffffffffffffffffffffffffffff168152602001908152602001600020600083815260200190815260200160002054905092915050565b61073c83838360405180602001604052806000815250610a80565b505050565b600b818154811061075157600080fd5b90600052602060002090600202016000915090508060000180546107749061260b565b80601f01602080910402602001604051908101604052809291908181526020018280546107a09061260b565b80156107ed5780601f106107c2576101008083540402835291602001916107ed565b820191906000526020600020905b8154815290600101906020018083116107d057829003601f168201915b5050505050908060010154905082565b600061080761060f565b8210610848576040517f08c379a000000000000000000000000000000000000000000000000000000000815260040161083f90612989565b60405180910390fd5b6008828154811061085c5761085b6129a9565b5b90600052602060002001549050919050565b6000806002600084815260200190815260200160002060009054906101000a900473ffffffffffffffffffffffffffffffffffffffff169050600073ffffffffffffffffffffffffffffffffffffffff168173ffffffffffffffffffffffffffffffffffffffff161415610917576040517f08c379a000000000000000000000000000000000000000000000000000000000815260040161090e90612a4a565b60405180910390fd5b80915050919050565b60008073ffffffffffffffffffffffffffffffffffffffff168273ffffffffffffffffffffffffffffffffffffffff161415610991576040517f08c379a000000000000000000000000000000000000000000000000000000000815260040161098890612adc565b60405180910390fd5b600360008373ffffffffffffffffffffffffffffffffffffffff1673ffffffffffffffffffffffffffffffffffffffff168152602001908152602001600020549050919050565b6060600180546109e79061260b565b80601f0160208091040260200160405190810160405280929190818152602001828054610a139061260b565b8015610a605780601f10610a3557610100808354040283529160200191610a60565b820191906000526020600020905b815481529060010190602001808311610a4357829003601f168201915b5050505050905090565b610a7c610a75610e10565b8383611216565b5050565b610a91610a8b610e10565b83610ed1565b610ad0576040517f08c379a0000000000000000000000000000000000000000000000000000000008152600401610ac790612865565b60405180910390fd5b610adc84848484611383565b50505050565b6060610aed82610da4565b610b2c576040517f08c379a0000000000000000000000000000000000000000000000000000000008152600401610b2390612b6e565b60405180910390fd5b6000610b366113df565b90506000815111610b565760405180602001604052806000815250610b81565b80610b60846113f6565b604051602001610b71929190612bca565b6040516020818303038152906040525b915050919050565b600a81604051610b999190612bee565b908152602001604051809103902060009054906101000a900460ff1615610bbf57600080fd5b6005600b8054905010610bd157600080fd5b600b6040518060400160405280838152602001600081525090806001815401808255809150506001900390600052602060002090600202016000909190919091506000820151816000019080519060200190610c2e929190611e5c565b5060208201518160010155505060006001600b80549050610c4f9190612c34565b9050610c5b3382611557565b6001600a83604051610c6d9190612bee565b908152602001604051809103902060006101000a81548160ff0219169083151502179055505050565b6000600560008473ffffffffffffffffffffffffffffffffffffffff1673ffffffffffffffffffffffffffffffffffffffff16815260200190815260200160002060008373ffffffffffffffffffffffffffffffffffffffff1673ffffffffffffffffffffffffffffffffffffffff16815260200190815260200160002060009054906101000a900460ff16905092915050565b60007f780e9d63000000000000000000000000000000000000000000000000000000007bffffffffffffffffffffffffffffffffffffffffffffffffffffffff1916827bffffffffffffffffffffffffffffffffffffffffffffffffffffffff19161480610d9d5750610d9c82611731565b5b9050919050565b60008073ffffffffffffffffffffffffffffffffffffffff166002600084815260200190815260200160002060009054906101000a900473ffffffffffffffffffffffffffffffffffffffff1673ffffffffffffffffffffffffffffffffffffffff1614159050919050565b600033905090565b816004600083815260200190815260200160002060006101000a81548173ffffffffffffffffffffffffffffffffffffffff021916908373ffffffffffffffffffffffffffffffffffffffff160217905550808273ffffffffffffffffffffffffffffffffffffffff16610e8b8361086e565b73ffffffffffffffffffffffffffffffffffffffff167f8c5be1e5ebec7d5bd14f71427d1e84f3dd0314c0f7b2291e5b200ac8c7c3b92560405160405180910390a45050565b6000610edc82610da4565b610f1b576040517f08c379a0000000000000000000000000000000000000000000000000000000008152600401610f1290612cda565b60405180910390fd5b6000610f268361086e565b90508073ffffffffffffffffffffffffffffffffffffffff168473ffffffffffffffffffffffffffffffffffffffff161480610f9557508373ffffffffffffffffffffffffffffffffffffffff16610f7d84610472565b73ffffffffffffffffffffffffffffffffffffffff16145b80610fa65750610fa58185610c96565b5b91505092915050565b8273ffffffffffffffffffffffffffffffffffffffff16610fcf8261086e565b73ffffffffffffffffffffffffffffffffffffffff1614611025576040517f08c379a000000000000000000000000000000000000000000000000000000000815260040161101c90612d6c565b60405180910390fd5b600073ffffffffffffffffffffffffffffffffffffffff168273ffffffffffffffffffffffffffffffffffffffff161415611095576040517f08c379a000000000000000000000000000000000000000000000000000000000815260040161108c90612dfe565b60405180910390fd5b6110a0838383611813565b6110ab600082610e18565b6001600360008573ffffffffffffffffffffffffffffffffffffffff1673ffffffffffffffffffffffffffffffffffffffff16815260200190815260200160002060008282546110fb9190612c34565b925050819055506001600360008473ffffffffffffffffffffffffffffffffffffffff1673ffffffffffffffffffffffffffffffffffffffff16815260200190815260200160002060008282546111529190612e1e565b92505081905550816002600083815260200190815260200160002060006101000a81548173ffffffffffffffffffffffffffffffffffffffff021916908373ffffffffffffffffffffffffffffffffffffffff160217905550808273ffffffffffffffffffffffffffffffffffffffff168473ffffffffffffffffffffffffffffffffffffffff167fddf252ad1be2c89b69c2b068fc378daa952ba7f163c4a11628f55a4df523b3ef60405160405180910390a4611211838383611823565b505050565b8173ffffffffffffffffffffffffffffffffffffffff168373ffffffffffffffffffffffffffffffffffffffff161415611285576040517f08c379a000000000000000000000000000000000000000000000000000000000815260040161127c90612ec0565b60405180910390fd5b80600560008573ffffffffffffffffffffffffffffffffffffffff1673ffffffffffffffffffffffffffffffffffffffff16815260200190815260200160002060008473ffffffffffffffffffffffffffffffffffffffff1673ffffffffffffffffffffffffffffffffffffffff16815260200190815260200160002060006101000a81548160ff0219169083151502179055508173ffffffffffffffffffffffffffffffffffffffff168373ffffffffffffffffffffffffffffffffffffffff167f17307eab39ab6107e8899845ad3d59bd9653f200f220920489ca2b5937696c31836040516113769190611fb3565b60405180910390a3505050565b61138e848484610faf565b61139a84848484611828565b6113d9576040517f08c379a00000000000000000000000000000000000000000000000000000000081526004016113d090612f52565b60405180910390fd5b50505050565b606060405180602001604052806000815250905090565b6060600082141561143e576040518060400160405280600181526020017f30000000000000000000000000000000000000000000000000000000000000008152509050611552565b600082905060005b6000821461147057808061145990612f72565b915050600a826114699190612fea565b9150611446565b60008167ffffffffffffffff81111561148c5761148b612304565b5b6040519080825280601f01601f1916602001820160405280156114be5781602001600182028036833780820191505090505b5090505b6000851461154b576001826114d79190612c34565b9150600a856114e6919061301b565b60306114f29190612e1e565b60f81b818381518110611508576115076129a9565b5b60200101907effffffffffffffffffffffffffffffffffffffffffffffffffffffffffffff1916908160001a905350600a856115449190612fea565b94506114c2565b8093505050505b919050565b600073ffffffffffffffffffffffffffffffffffffffff168273ffffffffffffffffffffffffffffffffffffffff1614156115c7576040517f08c379a00000000000000000000000000000000000000000000000000000000081526004016115be90613098565b60405180910390fd5b6115d081610da4565b15611610576040517f08c379a000000000000000000000000000000000000000000000000000000000815260040161160790613104565b60405180910390fd5b61161c60008383611813565b6001600360008473ffffffffffffffffffffffffffffffffffffffff1673ffffffffffffffffffffffffffffffffffffffff168152602001908152602001600020600082825461166c9190612e1e565b92505081905550816002600083815260200190815260200160002060006101000a81548173ffffffffffffffffffffffffffffffffffffffff021916908373ffffffffffffffffffffffffffffffffffffffff160217905550808273ffffffffffffffffffffffffffffffffffffffff16600073ffffffffffffffffffffffffffffffffffffffff167fddf252ad1be2c89b69c2b068fc378daa952ba7f163c4a11628f55a4df523b3ef60405160405180910390a461172d60008383611823565b5050565b60007f80ac58cd000000000000000000000000000000000000000000000000000000007bffffffffffffffffffffffffffffffffffffffffffffffffffffffff1916827bffffffffffffffffffffffffffffffffffffffffffffffffffffffff191614806117fc57507f5b5e139f000000000000000000000000000000000000000000000000000000007bffffffffffffffffffffffffffffffffffffffffffffffffffffffff1916827bffffffffffffffffffffffffffffffffffffffffffffffffffffffff1916145b8061180c575061180b826119b0565b5b9050919050565b61181e838383611a1a565b505050565b505050565b60006118498473ffffffffffffffffffffffffffffffffffffffff16611b2e565b156119a3578373ffffffffffffffffffffffffffffffffffffffff1663150b7a02611872610e10565b8786866040518563ffffffff1660e01b81526004016118949493929190613179565b6020604051808303816000875af19250505080156118d057506040513d601f19601f820116820180604052508101906118cd91906131da565b60015b611953573d8060008114611900576040519150601f19603f3d011682016040523d82523d6000602084013e611905565b606091505b5060008151141561194b576040517f08c379a000000000000000000000000000000000000000000000000000000000815260040161194290612f52565b60405180910390fd5b805181602001fd5b63150b7a0260e01b7bffffffffffffffffffffffffffffffffffffffffffffffffffffffff1916817bffffffffffffffffffffffffffffffffffffffffffffffffffffffff1916149150506119a8565b600190505b949350505050565b60007f01ffc9a7000000000000000000000000000000000000000000000000000000007bffffffffffffffffffffffffffffffffffffffffffffffffffffffff1916827bffffffffffffffffffffffffffffffffffffffffffffffffffffffff1916149050919050565b611a25838383611b51565b600073ffffffffffffffffffffffffffffffffffffffff168373ffffffffffffffffffffffffffffffffffffffff161415611a6857611a6381611b56565b611aa7565b8173ffffffffffffffffffffffffffffffffffffffff168373ffffffffffffffffffffffffffffffffffffffff1614611aa657611aa58382611b9f565b5b5b600073ffffffffffffffffffffffffffffffffffffffff168273ffffffffffffffffffffffffffffffffffffffff161415611aea57611ae581611d0c565b611b29565b8273ffffffffffffffffffffffffffffffffffffffff168273ffffffffffffffffffffffffffffffffffffffff1614611b2857611b278282611ddd565b5b5b505050565b6000808273ffffffffffffffffffffffffffffffffffffffff163b119050919050565b505050565b6008805490506009600083815260200190815260200160002081905550600881908060018154018082558091505060019003906000526020600020016000909190919091505550565b60006001611bac84610920565b611bb69190612c34565b9050600060076000848152602001908152602001600020549050818114611c9b576000600660008673ffffffffffffffffffffffffffffffffffffffff1673ffffffffffffffffffffffffffffffffffffffff168152602001908152602001600020600084815260200190815260200160002054905080600660008773ffffffffffffffffffffffffffffffffffffffff1673ffffffffffffffffffffffffffffffffffffffff168152602001908152602001600020600084815260200190815260200160002081905550816007600083815260200190815260200160002081905550505b6007600084815260200190815260200160002060009055600660008573ffffffffffffffffffffffffffffffffffffffff1673ffffffffffffffffffffffffffffffffffffffff16815260200190815260200160002060008381526020019081526020016000206000905550505050565b60006001600880549050611d209190612c34565b9050600060096000848152602001908152602001600020549050600060088381548110611d5057611d4f6129a9565b5b906000526020600020015490508060088381548110611d7257611d716129a9565b5b906000526020600020018190555081600960008381526020019081526020016000208190555060096000858152602001908152602001600020600090556008805480611dc157611dc0613207565b5b6001900381819060005260206000200160009055905550505050565b6000611de883610920565b905081600660008573ffffffffffffffffffffffffffffffffffffffff1673ffffffffffffffffffffffffffffffffffffffff168152602001908152602001600020600083815260200190815260200160002081905550806007600084815260200190815260200160002081905550505050565b828054611e689061260b565b90600052602060002090601f016020900481019282611e8a5760008555611ed1565b82601f10611ea357805160ff1916838001178555611ed1565b82800160010185558215611ed1579182015b82811115611ed0578251825591602001919060010190611eb5565b5b509050611ede9190611ee2565b5090565b5b80821115611efb576000816000905550600101611ee3565b5090565b6000604051905090565b600080fd5b600080fd5b60007fffffffff0000000000000000000000000000000000000000000000000000000082169050919050565b611f4881611f13565b8114611f5357600080fd5b50565b600081359050611f6581611f3f565b92915050565b600060208284031215611f8157611f80611f09565b5b6000611f8f84828501611f56565b91505092915050565b60008115159050919050565b611fad81611f98565b82525050565b6000602082019050611fc86000830184611fa4565b92915050565b600081519050919050565b600082825260208201905092915050565b60005b83811015612008578082015181840152602081019050611fed565b83811115612017576000848401525b50505050565b6000601f19601f8301169050919050565b600061203982611fce565b6120438185611fd9565b9350612053818560208601611fea565b61205c8161201d565b840191505092915050565b60006020820190508181036000830152612081818461202e565b905092915050565b6000819050919050565b61209c81612089565b81146120a757600080fd5b50565b6000813590506120b981612093565b92915050565b6000602082840312156120d5576120d4611f09565b5b60006120e3848285016120aa565b91505092915050565b600073ffffffffffffffffffffffffffffffffffffffff82169050919050565b6000612117826120ec565b9050919050565b6121278161210c565b82525050565b6000602082019050612142600083018461211e565b92915050565b6121518161210c565b811461215c57600080fd5b50565b60008135905061216e81612148565b92915050565b6000806040838503121561218b5761218a611f09565b5b60006121998582860161215f565b92505060206121aa858286016120aa565b9150509250929050565b6121bd81612089565b82525050565b60006020820190506121d860008301846121b4565b92915050565b6000806000606084860312156121f7576121f6611f09565b5b60006122058682870161215f565b93505060206122168682870161215f565b9250506040612227868287016120aa565b9150509250925092565b6000604082019050818103600083015261224b818561202e565b905061225a60208301846121b4565b9392505050565b60006020828403121561227757612276611f09565b5b60006122858482850161215f565b91505092915050565b61229781611f98565b81146122a257600080fd5b50565b6000813590506122b48161228e565b92915050565b600080604083850312156122d1576122d0611f09565b5b60006122df8582860161215f565b92505060206122f0858286016122a5565b9150509250929050565b600080fd5b600080fd5b7f4e487b7100000000000000000000000000000000000000000000000000000000600052604160045260246000fd5b61233c8261201d565b810181811067ffffffffffffffff8211171561235b5761235a612304565b5b80604052505050565b600061236e611eff565b905061237a8282612333565b919050565b600067ffffffffffffffff82111561239a57612399612304565b5b6123a38261201d565b9050602081019050919050565b82818337600083830152505050565b60006123d26123cd8461237f565b612364565b9050828152602081018484840111156123ee576123ed6122ff565b5b6123f98482856123b0565b509392505050565b600082601f830112612416576124156122fa565b5b81356124268482602086016123bf565b91505092915050565b6000806000806080858703121561244957612448611f09565b5b60006124578782880161215f565b94505060206124688782880161215f565b9350506040612479878288016120aa565b925050606085013567ffffffffffffffff81111561249a57612499611f0e565b5b6124a687828801612401565b91505092959194509250565b600067ffffffffffffffff8211156124cd576124cc612304565b5b6124d68261201d565b9050602081019050919050565b60006124f66124f1846124b2565b612364565b905082815260208101848484011115612512576125116122ff565b5b61251d8482856123b0565b509392505050565b600082601f83011261253a576125396122fa565b5b813561254a8482602086016124e3565b91505092915050565b60006020828403121561256957612568611f09565b5b600082013567ffffffffffffffff81111561258757612586611f0e565b5b61259384828501612525565b91505092915050565b600080604083850312156125b3576125b2611f09565b5b60006125c18582860161215f565b92505060206125d28582860161215f565b9150509250929050565b7f4e487b7100000000000000000000000000000000000000000000000000000000600052602260045260246000fd5b6000600282049050600182168061262357607f821691505b60208210811415612637576126366125dc565b5b50919050565b7f4552433732313a20617070726f76656420717565727920666f72206e6f6e657860008201527f697374656e7420746f6b656e0000000000000000000000000000000000000000602082015250565b6000612699602c83611fd9565b91506126a48261263d565b604082019050919050565b600060208201905081810360008301526126c88161268c565b9050919050565b7f4552433732313a20617070726f76616c20746f2063757272656e74206f776e6560008201527f7200000000000000000000000000000000000000000000000000000000000000602082015250565b600061272b602183611fd9565b9150612736826126cf565b604082019050919050565b6000602082019050818103600083015261275a8161271e565b9050919050565b7f4552433732313a20617070726f76652063616c6c6572206973206e6f74206f7760008201527f6e6572206e6f7220617070726f76656420666f7220616c6c0000000000000000602082015250565b60006127bd603883611fd9565b91506127c882612761565b604082019050919050565b600060208201905081810360008301526127ec816127b0565b9050919050565b7f4552433732313a207472616e736665722063616c6c6572206973206e6f74206f60008201527f776e6572206e6f7220617070726f766564000000000000000000000000000000602082015250565b600061284f603183611fd9565b915061285a826127f3565b604082019050919050565b6000602082019050818103600083015261287e81612842565b9050919050565b7f455243373231456e756d657261626c653a206f776e657220696e646578206f7560008201527f74206f6620626f756e6473000000000000000000000000000000000000000000602082015250565b60006128e1602b83611fd9565b91506128ec82612885565b604082019050919050565b60006020820190508181036000830152612910816128d4565b9050919050565b7f455243373231456e756d657261626c653a20676c6f62616c20696e646578206f60008201527f7574206f6620626f756e64730000000000000000000000000000000000000000602082015250565b6000612973602c83611fd9565b915061297e82612917565b604082019050919050565b600060208201905081810360008301526129a281612966565b9050919050565b7f4e487b7100000000000000000000000000000000000000000000000000000000600052603260045260246000fd5b7f4552433732313a206f776e657220717565727920666f72206e6f6e657869737460008201527f656e7420746f6b656e0000000000000000000000000000000000000000000000602082015250565b6000612a34602983611fd9565b9150612a3f826129d8565b604082019050919050565b60006020820190508181036000830152612a6381612a27565b9050919050565b7f4552433732313a2062616c616e636520717565727920666f7220746865207a6560008201527f726f206164647265737300000000000000000000000000000000000000000000602082015250565b6000612ac6602a83611fd9565b9150612ad182612a6a565b604082019050919050565b60006020820190508181036000830152612af581612ab9565b9050919050565b7f4552433732314d657461646174613a2055524920717565727920666f72206e6f60008201527f6e6578697374656e7420746f6b656e0000000000000000000000000000000000602082015250565b6000612b58602f83611fd9565b9150612b6382612afc565b604082019050919050565b60006020820190508181036000830152612b8781612b4b565b9050919050565b600081905092915050565b6000612ba482611fce565b612bae8185612b8e565b9350612bbe818560208601611fea565b80840191505092915050565b6000612bd68285612b99565b9150612be28284612b99565b91508190509392505050565b6000612bfa8284612b99565b915081905092915050565b7f4e487b7100000000000000000000000000000000000000000000000000000000600052601160045260246000fd5b6000612c3f82612089565b9150612c4a83612089565b925082821015612c5d57612c5c612c05565b5b828203905092915050565b7f4552433732313a206f70657261746f7220717565727920666f72206e6f6e657860008201527f697374656e7420746f6b656e0000000000000000000000000000000000000000602082015250565b6000612cc4602c83611fd9565b9150612ccf82612c68565b604082019050919050565b60006020820190508181036000830152612cf381612cb7565b9050919050565b7f4552433732313a207472616e736665722066726f6d20696e636f72726563742060008201527f6f776e6572000000000000000000000000000000000000000000000000000000602082015250565b6000612d56602583611fd9565b9150612d6182612cfa565b604082019050919050565b60006020820190508181036000830152612d8581612d49565b9050919050565b7f4552433732313a207472616e7366657220746f20746865207a65726f2061646460008201527f7265737300000000000000000000000000000000000000000000000000000000602082015250565b6000612de8602483611fd9565b9150612df382612d8c565b604082019050919050565b60006020820190508181036000830152612e1781612ddb565b9050919050565b6000612e2982612089565b9150612e3483612089565b9250827fffffffffffffffffffffffffffffffffffffffffffffffffffffffffffffffff03821115612e6957612e68612c05565b5b828201905092915050565b7f4552433732313a20617070726f766520746f2063616c6c657200000000000000600082015250565b6000612eaa601983611fd9565b9150612eb582612e74565b602082019050919050565b60006020820190508181036000830152612ed981612e9d565b9050919050565b7f4552433732313a207472616e7366657220746f206e6f6e20455243373231526560008201527f63656976657220696d706c656d656e7465720000000000000000000000000000602082015250565b6000612f3c603283611fd9565b9150612f4782612ee0565b604082019050919050565b60006020820190508181036000830152612f6b81612f2f565b9050919050565b6000612f7d82612089565b91507fffffffffffffffffffffffffffffffffffffffffffffffffffffffffffffffff821415612fb057612faf612c05565b5b600182019050919050565b7f4e487b7100000000000000000000000000000000000000000000000000000000600052601260045260246000fd5b6000612ff582612089565b915061300083612089565b9250826130105761300f612fbb565b5b828204905092915050565b600061302682612089565b915061303183612089565b92508261304157613040612fbb565b5b828206905092915050565b7f4552433732313a206d696e7420746f20746865207a65726f2061646472657373600082015250565b6000613082602083611fd9565b915061308d8261304c565b602082019050919050565b600060208201905081810360008301526130b181613075565b9050919050565b7f4552433732313a20746f6b656e20616c7265616479206d696e74656400000000600082015250565b60006130ee601c83611fd9565b91506130f9826130b8565b602082019050919050565b6000602082019050818103600083015261311d816130e1565b9050919050565b600081519050919050565b600082825260208201905092915050565b600061314b82613124565b613155818561312f565b9350613165818560208601611fea565b61316e8161201d565b840191505092915050565b600060808201905061318e600083018761211e565b61319b602083018661211e565b6131a860408301856121b4565b81810360608301526131ba8184613140565b905095945050505050565b6000815190506131d481611f3f565b92915050565b6000602082840312156131f0576131ef611f09565b5b60006131fe848285016131c5565b91505092915050565b7f4e487b7100000000000000000000000000000000000000000000000000000000600052603160045260246000fdfea2646970667358221220fbd0ca9ca555c7375b7cba70771a9f85952619274ff87822b44e4b4aac323f0464736f6c634300080b0033",
  "immutableReferences": {},
  "source": "// SPDX-License-Identifier: MIT\r\npragma solidity ^0.8.0;\r\n\r\nimport \"@openzeppelin/contracts/token/ERC721/ERC721.sol\";\r\n\r\nimport \"@openzeppelin/contracts/token/ERC721/extensions/ERC721Enumerable.sol\";\r\n\r\ncontract CryptoCoders is ERC721, ERC721Enumerable {\r\n\r\n    // string[] public coders; //  \r\n\r\n    //   \r\n    mapping(string => bool) _coderExists;\r\n\r\n    constructor() ERC721(\"CryptoCoders\", \"CCS\"){\r\n        \r\n    }\r\n\r\n    struct coder {\r\n        string name;\r\n        uint voteCount;\r\n    }\r\n\r\n    coder[] public coders;\r\n\r\n    function mint(string memory name) public {\r\n        // coder  \r\n        require(!_coderExists[name]);\r\n        require(coders.length < 5);\r\n        // nft    \r\n        coders.push(coder(name,0));\r\n        // coders   \r\n        uint _id = coders.length - 1;\r\n        _mint(msg.sender, _id);\r\n        _coderExists[name] = true;\r\n    }\r\n\r\n    function _beforeTokenTransfer(address from, address to, uint256 tokenId)\r\n        internal\r\n        override(ERC721, ERC721Enumerable)\r\n    {\r\n        super._beforeTokenTransfer(from, to, tokenId);\r\n    }\r\n\r\n    function supportsInterface(bytes4 interfaceId)\r\n        public\r\n        view\r\n        override(ERC721, ERC721Enumerable)\r\n        returns (bool)\r\n    {\r\n        return super.supportsInterface(interfaceId);\r\n    }\r\n}",
  "sourcePath": "C:\\Users\\HSBUBU\\Documents\\GitHub\\dicebearNFT\\contracts\\CryptoCoders.sol",
  "compiler": {
    "name": "solc",
    "version": "0.8.11+commit.d7f03943.Emscripten.clang"
  },
  "schemaVersion": "3.4.4",
  "updatedAt": "2022-02-23T08:22:23.238Z",
  "networkType": "ethereum",
  "devdoc": {
    "kind": "dev",
    "methods": {
      "approve(address,uint256)": {
        "details": "See {IERC721-approve}."
      },
      "balanceOf(address)": {
        "details": "See {IERC721-balanceOf}."
      },
      "getApproved(uint256)": {
        "details": "See {IERC721-getApproved}."
      },
      "isApprovedForAll(address,address)": {
        "details": "See {IERC721-isApprovedForAll}."
      },
      "name()": {
        "details": "See {IERC721Metadata-name}."
      },
      "ownerOf(uint256)": {
        "details": "See {IERC721-ownerOf}."
      },
      "safeTransferFrom(address,address,uint256)": {
        "details": "See {IERC721-safeTransferFrom}."
      },
      "safeTransferFrom(address,address,uint256,bytes)": {
        "details": "See {IERC721-safeTransferFrom}."
      },
      "setApprovalForAll(address,bool)": {
        "details": "See {IERC721-setApprovalForAll}."
      },
      "symbol()": {
        "details": "See {IERC721Metadata-symbol}."
      },
      "tokenByIndex(uint256)": {
        "details": "See {IERC721Enumerable-tokenByIndex}."
      },
      "tokenOfOwnerByIndex(address,uint256)": {
        "details": "See {IERC721Enumerable-tokenOfOwnerByIndex}."
      },
      "tokenURI(uint256)": {
        "details": "See {IERC721Metadata-tokenURI}."
      },
      "totalSupply()": {
        "details": "See {IERC721Enumerable-totalSupply}."
      },
      "transferFrom(address,address,uint256)": {
        "details": "See {IERC721-transferFrom}."
      }
    },
    "version": 1
  },
  "userdoc": {
    "kind": "user",
    "methods": {},
    "version": 1
  }
}